{
  "_format": "hh-sol-artifact-1",
  "contractName": "StudentSocietyDAO",
  "sourceName": "contracts/StudentSocietyDAO.sol",
  "abi": [
    {
      "inputs": [],
      "stateMutability": "nonpayable",
      "type": "constructor"
    },
    {
      "anonymous": false,
      "inputs": [
        {
          "indexed": false,
          "internalType": "uint32",
          "name": "proposalIndex",
          "type": "uint32"
        }
      ],
      "name": "ProposalInitiated",
      "type": "event"
    },
    {
      "inputs": [],
      "name": "PLAY_AMOUNT",
      "outputs": [
        {
          "internalType": "uint256",
          "name": "",
          "type": "uint256"
        }
      ],
      "stateMutability": "view",
      "type": "function"
    },
    {
      "inputs": [
        {
          "internalType": "uint32",
          "name": "proIndex",
          "type": "uint32"
        }
      ],
      "name": "agree_pro",
      "outputs": [],
      "stateMutability": "nonpayable",
      "type": "function"
    },
    {
      "inputs": [
        {
          "internalType": "string",
          "name": "proName",
          "type": "string"
        }
      ],
      "name": "arise_proposal",
      "outputs": [
        {
          "components": [
            {
              "internalType": "uint32",
              "name": "index",
              "type": "uint32"
            },
            {
              "internalType": "address",
              "name": "proposer",
              "type": "address"
            },
            {
              "internalType": "uint256",
              "name": "startTime",
              "type": "uint256"
            },
            {
              "internalType": "uint256",
              "name": "duration",
              "type": "uint256"
            },
            {
              "internalType": "uint256",
              "name": "endTime",
              "type": "uint256"
            },
            {
              "internalType": "string",
              "name": "name",
              "type": "string"
            },
            {
              "internalType": "uint32",
              "name": "agreeNum",
              "type": "uint32"
            },
            {
              "internalType": "uint32",
              "name": "disagreeNum",
              "type": "uint32"
            },
            {
              "internalType": "bool",
              "name": "isChecked",
              "type": "bool"
            },
            {
              "internalType": "bool",
              "name": "isPassed",
              "type": "bool"
            }
          ],
          "internalType": "struct StudentSocietyDAO.Proposal",
          "name": "",
          "type": "tuple"
        }
      ],
      "stateMutability": "nonpayable",
      "type": "function"
    },
    {
      "inputs": [
        {
          "internalType": "uint32",
          "name": "proIndex",
          "type": "uint32"
        }
      ],
      "name": "deal_pro",
      "outputs": [],
      "stateMutability": "nonpayable",
      "type": "function"
    },
    {
      "inputs": [
        {
          "internalType": "uint32",
          "name": "proIndex",
          "type": "uint32"
        }
      ],
      "name": "disagree_pro",
      "outputs": [],
      "stateMutability": "nonpayable",
      "type": "function"
    },
    {
      "inputs": [],
      "name": "get_air_drop",
      "outputs": [],
      "stateMutability": "nonpayable",
      "type": "function"
    },
    {
      "inputs": [
        {
          "internalType": "address",
          "name": "addr",
          "type": "address"
        }
      ],
      "name": "get_balance",
      "outputs": [
        {
          "internalType": "uint256",
          "name": "",
          "type": "uint256"
        }
      ],
      "stateMutability": "view",
      "type": "function"
    },
    {
      "inputs": [],
      "name": "get_balance",
      "outputs": [
        {
          "internalType": "uint256",
          "name": "",
          "type": "uint256"
        }
      ],
      "stateMutability": "view",
      "type": "function"
    },
    {
      "inputs": [
        {
          "internalType": "address",
          "name": "",
          "type": "address"
        }
      ],
      "name": "hasAirdrop",
      "outputs": [
        {
          "internalType": "bool",
          "name": "",
          "type": "bool"
        }
      ],
      "stateMutability": "view",
      "type": "function"
    },
    {
      "inputs": [],
      "name": "helloworld",
      "outputs": [
        {
          "internalType": "string",
          "name": "",
          "type": "string"
        }
      ],
      "stateMutability": "pure",
      "type": "function"
    },
    {
      "inputs": [
        {
          "internalType": "address",
          "name": "",
          "type": "address"
        }
      ],
      "name": "newItemID",
      "outputs": [
        {
          "internalType": "uint256",
          "name": "",
          "type": "uint256"
        }
      ],
      "stateMutability": "view",
      "type": "function"
    },
    {
      "inputs": [
        {
          "internalType": "address",
          "name": "",
          "type": "address"
        }
      ],
      "name": "proNum",
      "outputs": [
        {
          "internalType": "uint32",
          "name": "",
          "type": "uint32"
        }
      ],
      "stateMutability": "view",
      "type": "function"
    },
    {
      "inputs": [
        {
          "internalType": "uint256",
          "name": "",
          "type": "uint256"
        }
      ],
      "name": "proSet",
      "outputs": [
        {
          "internalType": "uint32",
          "name": "index",
          "type": "uint32"
        },
        {
          "internalType": "address",
          "name": "proposer",
          "type": "address"
        },
        {
          "internalType": "uint256",
          "name": "startTime",
          "type": "uint256"
        },
        {
          "internalType": "uint256",
          "name": "duration",
          "type": "uint256"
        },
        {
          "internalType": "uint256",
          "name": "endTime",
          "type": "uint256"
        },
        {
          "internalType": "string",
          "name": "name",
          "type": "string"
        },
        {
          "internalType": "uint32",
          "name": "agreeNum",
          "type": "uint32"
        },
        {
          "internalType": "uint32",
          "name": "disagreeNum",
          "type": "uint32"
        },
        {
          "internalType": "bool",
          "name": "isChecked",
          "type": "bool"
        },
        {
          "internalType": "bool",
          "name": "isPassed",
          "type": "bool"
        }
      ],
      "stateMutability": "view",
      "type": "function"
    },
    {
      "inputs": [],
      "name": "proposalIndex",
      "outputs": [
        {
          "internalType": "uint32",
          "name": "",
          "type": "uint32"
        }
      ],
      "stateMutability": "view",
      "type": "function"
    },
    {
      "inputs": [
        {
          "internalType": "uint32",
          "name": "",
          "type": "uint32"
        }
      ],
      "name": "proposals",
      "outputs": [
        {
          "internalType": "uint32",
          "name": "index",
          "type": "uint32"
        },
        {
          "internalType": "address",
          "name": "proposer",
          "type": "address"
        },
        {
          "internalType": "uint256",
          "name": "startTime",
          "type": "uint256"
        },
        {
          "internalType": "uint256",
          "name": "duration",
          "type": "uint256"
        },
        {
          "internalType": "uint256",
          "name": "endTime",
          "type": "uint256"
        },
        {
          "internalType": "string",
          "name": "name",
          "type": "string"
        },
        {
          "internalType": "uint32",
          "name": "agreeNum",
          "type": "uint32"
        },
        {
          "internalType": "uint32",
          "name": "disagreeNum",
          "type": "uint32"
        },
        {
          "internalType": "bool",
          "name": "isChecked",
          "type": "bool"
        },
        {
          "internalType": "bool",
          "name": "isPassed",
          "type": "bool"
        }
      ],
      "stateMutability": "view",
      "type": "function"
    },
    {
      "inputs": [
        {
          "internalType": "uint32",
          "name": "proIndex",
          "type": "uint32"
        }
      ],
      "name": "show_pro",
      "outputs": [],
      "stateMutability": "nonpayable",
      "type": "function"
    },
    {
      "inputs": [],
      "name": "studentERC20",
      "outputs": [
        {
          "internalType": "contract MyERC20",
          "name": "",
          "type": "address"
        }
      ],
      "stateMutability": "view",
      "type": "function"
    },
    {
      "inputs": [],
      "name": "studentERC721",
      "outputs": [
        {
          "internalType": "contract MyERC721",
          "name": "",
          "type": "address"
        }
      ],
      "stateMutability": "view",
      "type": "function"
    }
  ],
  "bytecode": "0x60806040523480156200001157600080fd5b5060405162000020906200011d565b6200002b906200019a565b604051809103906000f08015801562000048573d6000803e3d6000fd5b50600160046101000a81548173ffffffffffffffffffffffffffffffffffffffff021916908373ffffffffffffffffffffffffffffffffffffffff16021790555060405162000097906200012b565b604051809103906000f080158015620000b4573d6000803e3d6000fd5b50600260006101000a81548173ffffffffffffffffffffffffffffffffffffffff021916908373ffffffffffffffffffffffffffffffffffffffff1602179055506000600160006101000a81548163ffffffff021916908363ffffffff160217905550620001d1565b6119e980620028e483390190565b612a8480620042cd83390190565b600082825260208201905092915050565b7f5a4a55546f6b656e000000000000000000000000000000000000000000000000600082015250565b60006200018260088362000139565b91506200018f826200014a565b602082019050919050565b60006040820190508181036000830152620001b58162000173565b90508181036020830152620001ca8162000173565b9050919050565b61270380620001e16000396000f3fe608060405234801561001057600080fd5b50600436106101165760003560e01c80635977e0f2116100a2578063bbbc157211610071578063bbbc157214610307578063c1cfb99a14610323578063e6978b5014610341578063f8b545aa1461035f578063f9adba9b1461037b57610116565b80635977e0f21461026b5780636c3fbb2d146102895780636c4be791146102a7578063983e8cff146102d757610116565b80632f2f4859116100e95780632f2f4859146101d057806338460bb9146101ee5780633901d2d41461020a578063390a02d51461022857806358f6eb501461023257610116565b80630513d7241461011b5780631afce64e1461014b5780631e279a37146101675780632a4910ab14610197575b600080fd5b61013560048036038101906101309190611adb565b6103ab565b6040516101429190611b21565b60405180910390f35b61016560048036038101906101609190611b78565b6103c3565b005b610181600480360381019061017c9190611adb565b610463565b60405161018e9190611b21565b60405180910390f35b6101b160048036038101906101ac9190611b78565b610517565b6040516101c79a99989796959493929190611c77565b60405180910390f35b6101d861065d565b6040516101e59190611d1a565b60405180910390f35b61020860048036038101906102039190611b78565b61069a565b005b610212610a1a565b60405161021f9190611d9b565b60405180910390f35b610230610a40565b005b61024c60048036038101906102479190611de2565b610acf565b6040516102629a99989796959493929190611c77565b60405180910390f35b610273610c25565b6040516102809190611e0f565b60405180910390f35b610291610c3b565b60405161029e9190611e4b565b60405180910390f35b6102c160048036038101906102bc9190611adb565b610c61565b6040516102ce9190611e66565b60405180910390f35b6102f160048036038101906102ec9190611adb565b610c81565b6040516102fe9190611e0f565b60405180910390f35b610321600480360381019061031c9190611b78565b610ca4565b005b61032b611024565b6040516103389190611b21565b60405180910390f35b6103496110d6565b6040516103569190611b21565b60405180910390f35b61037960048036038101906103749190611b78565b6110dc565b005b61039560048036038101906103909190611fb6565b611594565b6040516103a2919061215f565b60405180910390f35b60056020528060005260406000206000915090505481565b600160009054906101000a900463ffffffff1663ffffffff168163ffffffff1610610423576040517f08c379a000000000000000000000000000000000000000000000000000000000815260040161041a906121cd565b60405180910390fd5b60008163ffffffff168154811061043d5761043c6121ed565b5b9060005260206000209060060201600301544211156104605761045f816110dc565b5b50565b6000600160049054906101000a900473ffffffffffffffffffffffffffffffffffffffff1673ffffffffffffffffffffffffffffffffffffffff166370a08231836040518263ffffffff1660e01b81526004016104c0919061221c565b60206040518083038186803b1580156104d857600080fd5b505afa1580156104ec573d6000803e3d6000fd5b505050506040513d601f19601f82011682018060405250810190610510919061224c565b9050919050565b60036020528060005260406000206000915090508060000160009054906101000a900463ffffffff16908060000160049054906101000a900473ffffffffffffffffffffffffffffffffffffffff1690806001015490806002015490806003015490806004018054610588906122a8565b80601f01602080910402602001604051908101604052809291908181526020018280546105b4906122a8565b80156106015780601f106105d657610100808354040283529160200191610601565b820191906000526020600020905b8154815290600101906020018083116105e457829003601f168201915b5050505050908060050160009054906101000a900463ffffffff16908060050160049054906101000a900463ffffffff16908060050160089054906101000a900460ff16908060050160099054906101000a900460ff1690508a565b60606040518060400160405280600b81526020017f68656c6c6f20776f726c64000000000000000000000000000000000000000000815250905090565b600160009054906101000a900463ffffffff1663ffffffff168163ffffffff16106106fa576040517f08c379a00000000000000000000000000000000000000000000000000000000081526004016106f1906121cd565b60405180910390fd5b606461070533610463565b1015610746576040517f08c379a000000000000000000000000000000000000000000000000000000000815260040161073d9061234c565b60405180910390fd5b6000151560008263ffffffff1681548110610764576107636121ed565b5b906000526020600020906006020160050160089054906101000a900460ff161515146107c5576040517f08c379a00000000000000000000000000000000000000000000000000000000081526004016107bc906123b8565b60405180910390fd5b60008163ffffffff16815481106107df576107de6121ed565b5b90600052602060002090600602016003015442116109195760008163ffffffff1681548110610811576108106121ed565b5b9060005260206000209060060201600501600081819054906101000a900463ffffffff168092919061084290612407565b91906101000a81548163ffffffff021916908363ffffffff16021790555050600160049054906101000a900473ffffffffffffffffffffffffffffffffffffffff1673ffffffffffffffffffffffffffffffffffffffff166323b872dd333060646040518463ffffffff1660e01b81526004016108c19392919061246f565b602060405180830381600087803b1580156108db57600080fd5b505af11580156108ef573d6000803e3d6000fd5b505050506040513d601f19601f8201168201806040525081019061091391906124d2565b50610a17565b610922816110dc565b600160049054906101000a900473ffffffffffffffffffffffffffffffffffffffff1673ffffffffffffffffffffffffffffffffffffffff166323b872dd333060646040518463ffffffff1660e01b81526004016109829392919061246f565b602060405180830381600087803b15801561099c57600080fd5b505af11580156109b0573d6000803e3d6000fd5b505050506040513d601f19601f820116820180604052508101906109d491906124d2565b506000610a16576040517f08c379a0000000000000000000000000000000000000000000000000000000008152600401610a0d9061254b565b60405180910390fd5b5b50565b600260009054906101000a900473ffffffffffffffffffffffffffffffffffffffff1681565b600160049054906101000a900473ffffffffffffffffffffffffffffffffffffffff1673ffffffffffffffffffffffffffffffffffffffff166321860a05336040518263ffffffff1660e01b8152600401610a9b919061221c565b600060405180830381600087803b158015610ab557600080fd5b505af1158015610ac9573d6000803e3d6000fd5b50505050565b60008181548110610adf57600080fd5b90600052602060002090600602016000915090508060000160009054906101000a900463ffffffff16908060000160049054906101000a900473ffffffffffffffffffffffffffffffffffffffff1690806001015490806002015490806003015490806004018054610b50906122a8565b80601f0160208091040260200160405190810160405280929190818152602001828054610b7c906122a8565b8015610bc95780601f10610b9e57610100808354040283529160200191610bc9565b820191906000526020600020905b815481529060010190602001808311610bac57829003601f168201915b5050505050908060050160009054906101000a900463ffffffff16908060050160049054906101000a900463ffffffff16908060050160089054906101000a900460ff16908060050160099054906101000a900460ff1690508a565b600160009054906101000a900463ffffffff1681565b600160049054906101000a900473ffffffffffffffffffffffffffffffffffffffff1681565b60066020528060005260406000206000915054906101000a900460ff1681565b60046020528060005260406000206000915054906101000a900463ffffffff1681565b600160009054906101000a900463ffffffff1663ffffffff168163ffffffff1610610d04576040517f08c379a0000000000000000000000000000000000000000000000000000000008152600401610cfb906121cd565b60405180910390fd5b6064610d0f33610463565b1015610d50576040517f08c379a0000000000000000000000000000000000000000000000000000000008152600401610d479061234c565b60405180910390fd5b6000151560008263ffffffff1681548110610d6e57610d6d6121ed565b5b906000526020600020906006020160050160089054906101000a900460ff16151514610dcf576040517f08c379a0000000000000000000000000000000000000000000000000000000008152600401610dc69061254b565b60405180910390fd5b60008163ffffffff1681548110610de957610de86121ed565b5b9060005260206000209060060201600301544211610f235760008163ffffffff1681548110610e1b57610e1a6121ed565b5b9060005260206000209060060201600501600481819054906101000a900463ffffffff1680929190610e4c90612407565b91906101000a81548163ffffffff021916908363ffffffff16021790555050600160049054906101000a900473ffffffffffffffffffffffffffffffffffffffff1673ffffffffffffffffffffffffffffffffffffffff166323b872dd333060646040518463ffffffff1660e01b8152600401610ecb9392919061246f565b602060405180830381600087803b158015610ee557600080fd5b505af1158015610ef9573d6000803e3d6000fd5b505050506040513d601f19601f82011682018060405250810190610f1d91906124d2565b50611021565b610f2c816110dc565b600160049054906101000a900473ffffffffffffffffffffffffffffffffffffffff1673ffffffffffffffffffffffffffffffffffffffff166323b872dd333060646040518463ffffffff1660e01b8152600401610f8c9392919061246f565b602060405180830381600087803b158015610fa657600080fd5b505af1158015610fba573d6000803e3d6000fd5b505050506040513d601f19601f82011682018060405250810190610fde91906124d2565b506000611020576040517f08c379a00000000000000000000000000000000000000000000000000000000081526004016110179061254b565b60405180910390fd5b5b50565b6000600160049054906101000a900473ffffffffffffffffffffffffffffffffffffffff1673ffffffffffffffffffffffffffffffffffffffff166370a08231336040518263ffffffff1660e01b8152600401611081919061221c565b60206040518083038186803b15801561109957600080fd5b505afa1580156110ad573d6000803e3d6000fd5b505050506040513d601f19601f820116820180604052508101906110d1919061224c565b905090565b6103e881565b600160009054906101000a900463ffffffff1663ffffffff168163ffffffff161061113c576040517f08c379a0000000000000000000000000000000000000000000000000000000008152600401611133906121cd565b60405180910390fd5b60008163ffffffff1681548110611156576111556121ed565b5b906000526020600020906006020160050160049054906101000a900463ffffffff1663ffffffff1660008263ffffffff1681548110611198576111976121ed565b5b906000526020600020906006020160050160009054906101000a900463ffffffff1663ffffffff16111561154d57600160008263ffffffff16815481106111e2576111e16121ed565b5b906000526020600020906006020160050160096101000a81548160ff021916908315150217905550600160049054906101000a900473ffffffffffffffffffffffffffffffffffffffff1673ffffffffffffffffffffffffffffffffffffffff16633081591960008363ffffffff1681548110611262576112616121ed565b5b906000526020600020906006020160000160049054906101000a900473ffffffffffffffffffffffffffffffffffffffff166040518263ffffffff1660e01b81526004016112b0919061221c565b600060405180830381600087803b1580156112ca57600080fd5b505af11580156112de573d6000803e3d6000fd5b5050505060046000808363ffffffff16815481106112ff576112fe6121ed565b5b906000526020600020906006020160000160049054906101000a900473ffffffffffffffffffffffffffffffffffffffff1673ffffffffffffffffffffffffffffffffffffffff1673ffffffffffffffffffffffffffffffffffffffff168152602001908152602001600020600081819054906101000a900463ffffffff168092919061138b90612407565b91906101000a81548163ffffffff021916908363ffffffff16021790555050600360046000808463ffffffff16815481106113c9576113c86121ed565b5b906000526020600020906006020160000160049054906101000a900473ffffffffffffffffffffffffffffffffffffffff1673ffffffffffffffffffffffffffffffffffffffff1673ffffffffffffffffffffffffffffffffffffffff16815260200190815260200160002060009054906101000a900463ffffffff1663ffffffff16141561154c57600260009054906101000a900473ffffffffffffffffffffffffffffffffffffffff1673ffffffffffffffffffffffffffffffffffffffff1663cf37834360008363ffffffff16815481106114aa576114a96121ed565b5b906000526020600020906006020160000160049054906101000a900473ffffffffffffffffffffffffffffffffffffffff166040518263ffffffff1660e01b81526004016114f891906125b7565b602060405180830381600087803b15801561151257600080fd5b505af1158015611526573d6000803e3d6000fd5b505050506040513d601f19601f8201168201806040525081019061154a919061224c565b505b5b600160008263ffffffff1681548110611569576115686121ed565b5b906000526020600020906006020160050160086101000a81548160ff02191690831515021790555050565b61159c611947565b60646115a733610463565b10156115e8576040517f08c379a00000000000000000000000000000000000000000000000000000000081526004016115df90612657565b60405180910390fd5b6115f0611947565b600160009054906101000a900463ffffffff16816000019063ffffffff16908163ffffffff16815250506001600081819054906101000a900463ffffffff168092919061163c90612407565b91906101000a81548163ffffffff021916908363ffffffff16021790555050601e816060018181525050828160a00181905250428160400181815250508060600151816040015161168d9190612677565b81608001818152505033816020019073ffffffffffffffffffffffffffffffffffffffff16908173ffffffffffffffffffffffffffffffffffffffff168152505060008160c0019063ffffffff16908163ffffffff168152505060008161010001901515908115158152505060008160e0019063ffffffff16908163ffffffff1681525050600081610120019015159081151581525050600081908060018154018082558091505060019003906000526020600020906006020160009091909190915060008201518160000160006101000a81548163ffffffff021916908363ffffffff16021790555060208201518160000160046101000a81548173ffffffffffffffffffffffffffffffffffffffff021916908373ffffffffffffffffffffffffffffffffffffffff16021790555060408201518160010155606082015181600201556080820151816003015560a08201518160040190805190602001906117f89291906119c6565b5060c08201518160050160006101000a81548163ffffffff021916908363ffffffff16021790555060e08201518160050160046101000a81548163ffffffff021916908363ffffffff1602179055506101008201518160050160086101000a81548160ff0219169083151502179055506101208201518160050160096101000a81548160ff0219169083151502179055505050600160049054906101000a900473ffffffffffffffffffffffffffffffffffffffff1673ffffffffffffffffffffffffffffffffffffffff166323b872dd333060646040518463ffffffff1660e01b81526004016118eb9392919061246f565b602060405180830381600087803b15801561190557600080fd5b505af1158015611919573d6000803e3d6000fd5b505050506040513d601f19601f8201168201806040525081019061193d91906124d2565b5080915050919050565b604051806101400160405280600063ffffffff168152602001600073ffffffffffffffffffffffffffffffffffffffff16815260200160008152602001600081526020016000815260200160608152602001600063ffffffff168152602001600063ffffffff1681526020016000151581526020016000151581525090565b8280546119d2906122a8565b90600052602060002090601f0160209004810192826119f45760008555611a3b565b82601f10611a0d57805160ff1916838001178555611a3b565b82800160010185558215611a3b579182015b82811115611a3a578251825591602001919060010190611a1f565b5b509050611a489190611a4c565b5090565b5b80821115611a65576000816000905550600101611a4d565b5090565b6000604051905090565b600080fd5b600080fd5b600073ffffffffffffffffffffffffffffffffffffffff82169050919050565b6000611aa882611a7d565b9050919050565b611ab881611a9d565b8114611ac357600080fd5b50565b600081359050611ad581611aaf565b92915050565b600060208284031215611af157611af0611a73565b5b6000611aff84828501611ac6565b91505092915050565b6000819050919050565b611b1b81611b08565b82525050565b6000602082019050611b366000830184611b12565b92915050565b600063ffffffff82169050919050565b611b5581611b3c565b8114611b6057600080fd5b50565b600081359050611b7281611b4c565b92915050565b600060208284031215611b8e57611b8d611a73565b5b6000611b9c84828501611b63565b91505092915050565b611bae81611b3c565b82525050565b611bbd81611a9d565b82525050565b600081519050919050565b600082825260208201905092915050565b60005b83811015611bfd578082015181840152602081019050611be2565b83811115611c0c576000848401525b50505050565b6000601f19601f8301169050919050565b6000611c2e82611bc3565b611c388185611bce565b9350611c48818560208601611bdf565b611c5181611c12565b840191505092915050565b60008115159050919050565b611c7181611c5c565b82525050565b600061014082019050611c8d600083018d611ba5565b611c9a602083018c611bb4565b611ca7604083018b611b12565b611cb4606083018a611b12565b611cc16080830189611b12565b81810360a0830152611cd38188611c23565b9050611ce260c0830187611ba5565b611cef60e0830186611ba5565b611cfd610100830185611c68565b611d0b610120830184611c68565b9b9a5050505050505050505050565b60006020820190508181036000830152611d348184611c23565b905092915050565b6000819050919050565b6000611d61611d5c611d5784611a7d565b611d3c565b611a7d565b9050919050565b6000611d7382611d46565b9050919050565b6000611d8582611d68565b9050919050565b611d9581611d7a565b82525050565b6000602082019050611db06000830184611d8c565b92915050565b611dbf81611b08565b8114611dca57600080fd5b50565b600081359050611ddc81611db6565b92915050565b600060208284031215611df857611df7611a73565b5b6000611e0684828501611dcd565b91505092915050565b6000602082019050611e246000830184611ba5565b92915050565b6000611e3582611d68565b9050919050565b611e4581611e2a565b82525050565b6000602082019050611e606000830184611e3c565b92915050565b6000602082019050611e7b6000830184611c68565b92915050565b600080fd5b600080fd5b7f4e487b7100000000000000000000000000000000000000000000000000000000600052604160045260246000fd5b611ec382611c12565b810181811067ffffffffffffffff82111715611ee257611ee1611e8b565b5b80604052505050565b6000611ef5611a69565b9050611f018282611eba565b919050565b600067ffffffffffffffff821115611f2157611f20611e8b565b5b611f2a82611c12565b9050602081019050919050565b82818337600083830152505050565b6000611f59611f5484611f06565b611eeb565b905082815260208101848484011115611f7557611f74611e86565b5b611f80848285611f37565b509392505050565b600082601f830112611f9d57611f9c611e81565b5b8135611fad848260208601611f46565b91505092915050565b600060208284031215611fcc57611fcb611a73565b5b600082013567ffffffffffffffff811115611fea57611fe9611a78565b5b611ff684828501611f88565b91505092915050565b61200881611b3c565b82525050565b61201781611a9d565b82525050565b61202681611b08565b82525050565b600082825260208201905092915050565b600061204882611bc3565b612052818561202c565b9350612062818560208601611bdf565b61206b81611c12565b840191505092915050565b61207f81611c5c565b82525050565b60006101408301600083015161209e6000860182611fff565b5060208301516120b1602086018261200e565b5060408301516120c4604086018261201d565b5060608301516120d7606086018261201d565b5060808301516120ea608086018261201d565b5060a083015184820360a0860152612102828261203d565b91505060c083015161211760c0860182611fff565b5060e083015161212a60e0860182611fff565b5061010083015161213f610100860182612076565b50610120830151612154610120860182612076565b508091505092915050565b600060208201905081810360008301526121798184612085565b905092915050565b7f696e64657820646f6573206e6f74206578697374730000000000000000000000600082015250565b60006121b7601583611bce565b91506121c282612181565b602082019050919050565b600060208201905081810360008301526121e6816121aa565b9050919050565b7f4e487b7100000000000000000000000000000000000000000000000000000000600052603260045260246000fd5b60006020820190506122316000830184611bb4565b92915050565b60008151905061224681611db6565b92915050565b60006020828403121561226257612261611a73565b5b600061227084828501612237565b91505092915050565b7f4e487b7100000000000000000000000000000000000000000000000000000000600052602260045260246000fd5b600060028204905060018216806122c057607f821691505b602082108114156122d4576122d3612279565b5b50919050565b7f4e6f20656e6f75676820746f6b656e20746f2061677265652070726f706f736160008201527f6c210a0000000000000000000000000000000000000000000000000000000000602082015250565b6000612336602383611bce565b9150612341826122da565b604082019050919050565b6000602082019050818103600083015261236581612329565b9050919050565b7f70726f706f73616c206973206f757420646174650a0000000000000000000000600082015250565b60006123a2601583611bce565b91506123ad8261236c565b602082019050919050565b600060208201905081810360008301526123d181612395565b9050919050565b7f4e487b7100000000000000000000000000000000000000000000000000000000600052601160045260246000fd5b600061241282611b3c565b915063ffffffff821415612429576124286123d8565b5b600182019050919050565b6000819050919050565b600061245961245461244f84612434565b611d3c565b611b08565b9050919050565b6124698161243e565b82525050565b60006060820190506124846000830186611bb4565b6124916020830185611bb4565b61249e6040830184612460565b949350505050565b6124af81611c5c565b81146124ba57600080fd5b50565b6000815190506124cc816124a6565b92915050565b6000602082840312156124e8576124e7611a73565b5b60006124f6848285016124bd565b91505092915050565b7f70726f706f73616c206973206f75742064617465000000000000000000000000600082015250565b6000612535601483611bce565b9150612540826124ff565b602082019050919050565b6000602082019050818103600083015261256481612528565b9050919050565b7f4d79455243373231000000000000000000000000000000000000000000000000600082015250565b60006125a1600883611bce565b91506125ac8261256b565b602082019050919050565b60006040820190506125cc6000830184611bb4565b81810360208301526125dd81612594565b905092915050565b7f4e6f20656e6f75676820746f6b656e20746f2061726973652070726f706f736160008201527f6c210a0000000000000000000000000000000000000000000000000000000000602082015250565b6000612641602383611bce565b915061264c826125e5565b604082019050919050565b6000602082019050818103600083015261267081612634565b9050919050565b600061268282611b08565b915061268d83611b08565b9250827fffffffffffffffffffffffffffffffffffffffffffffffffffffffffffffffff038211156126c2576126c16123d8565b5b82820190509291505056fea2646970667358221220703bdad5ce912f6a12497eeee4d1757826ac0d39d44d4df81bdd69ef34bc957a64736f6c6343000809003360806040523480156200001157600080fd5b50604051620019e9380380620019e98339818101604052810190620000379190620002c2565b818181600390805190602001906200005192919062000075565b5080600490805190602001906200006a92919062000075565b5050505050620003ac565b828054620000839062000376565b90600052602060002090601f016020900481019282620000a75760008555620000f3565b82601f10620000c257805160ff1916838001178555620000f3565b82800160010185558215620000f3579182015b82811115620000f2578251825591602001919060010190620000d5565b5b50905062000102919062000106565b5090565b5b808211156200012157600081600090555060010162000107565b5090565b6000604051905090565b600080fd5b600080fd5b600080fd5b600080fd5b6000601f19601f8301169050919050565b7f4e487b7100000000000000000000000000000000000000000000000000000000600052604160045260246000fd5b6200018e8262000143565b810181811067ffffffffffffffff82111715620001b057620001af62000154565b5b80604052505050565b6000620001c562000125565b9050620001d3828262000183565b919050565b600067ffffffffffffffff821115620001f657620001f562000154565b5b620002018262000143565b9050602081019050919050565b60005b838110156200022e57808201518184015260208101905062000211565b838111156200023e576000848401525b50505050565b60006200025b6200025584620001d8565b620001b9565b9050828152602081018484840111156200027a57620002796200013e565b5b620002878482856200020e565b509392505050565b600082601f830112620002a757620002a662000139565b5b8151620002b984826020860162000244565b91505092915050565b60008060408385031215620002dc57620002db6200012f565b5b600083015167ffffffffffffffff811115620002fd57620002fc62000134565b5b6200030b858286016200028f565b925050602083015167ffffffffffffffff8111156200032f576200032e62000134565b5b6200033d858286016200028f565b9150509250929050565b7f4e487b7100000000000000000000000000000000000000000000000000000000600052602260045260246000fd5b600060028204905060018216806200038f57607f821691505b60208210811415620003a657620003a562000347565b5b50919050565b61162d80620003bc6000396000f3fe608060405234801561001057600080fd5b50600436106100cf5760003560e01c8063313ce5671161008c57806395d89b411161006657806395d89b4114610226578063a457c2d714610244578063a9059cbb14610274578063dd62ed3e146102a4576100cf565b8063313ce567146101a857806339509351146101c657806370a08231146101f6576100cf565b806306fdde03146100d4578063095ea7b3146100f257806318160ddd1461012257806321860a051461014057806323b872dd1461015c578063308159191461018c575b600080fd5b6100dc6102d4565b6040516100e99190610de9565b60405180910390f35b61010c60048036038101906101079190610ea4565b610366565b6040516101199190610eff565b60405180910390f35b61012a610389565b6040516101379190610f29565b60405180910390f35b61015a60048036038101906101559190610f44565b610393565b005b61017660048036038101906101719190610f71565b61048d565b6040516101839190610eff565b60405180910390f35b6101a660048036038101906101a19190610f44565b6104bc565b005b6101b06104cb565b6040516101bd9190610fe0565b60405180910390f35b6101e060048036038101906101db9190610ea4565b6104d4565b6040516101ed9190610eff565b60405180910390f35b610210600480360381019061020b9190610f44565b61050b565b60405161021d9190610f29565b60405180910390f35b61022e610553565b60405161023b9190610de9565b60405180910390f35b61025e60048036038101906102599190610ea4565b6105e5565b60405161026b9190610eff565b60405180910390f35b61028e60048036038101906102899190610ea4565b61065c565b60405161029b9190610eff565b60405180910390f35b6102be60048036038101906102b99190610ffb565b61067f565b6040516102cb9190610f29565b60405180910390f35b6060600380546102e39061106a565b80601f016020809104026020016040519081016040528092919081815260200182805461030f9061106a565b801561035c5780601f106103315761010080835404028352916020019161035c565b820191906000526020600020905b81548152906001019060200180831161033f57829003601f168201915b5050505050905090565b600080610371610706565b905061037e81858561070e565b600191505092915050565b6000600254905090565b60001515600560008373ffffffffffffffffffffffffffffffffffffffff1673ffffffffffffffffffffffffffffffffffffffff16815260200190815260200160002060009054906101000a900460ff16151514610426576040517f08c379a000000000000000000000000000000000000000000000000000000000815260040161041d9061110e565b60405180910390fd5b610432816103e86108d9565b6001600560008373ffffffffffffffffffffffffffffffffffffffff1673ffffffffffffffffffffffffffffffffffffffff16815260200190815260200160002060006101000a81548160ff02191690831515021790555050565b600080610498610706565b90506104a5858285610a39565b6104b0858585610ac5565b60019150509392505050565b6104c8816103e86108d9565b50565b60006012905090565b6000806104df610706565b90506105008185856104f1858961067f565b6104fb919061115d565b61070e565b600191505092915050565b60008060008373ffffffffffffffffffffffffffffffffffffffff1673ffffffffffffffffffffffffffffffffffffffff168152602001908152602001600020549050919050565b6060600480546105629061106a565b80601f016020809104026020016040519081016040528092919081815260200182805461058e9061106a565b80156105db5780601f106105b0576101008083540402835291602001916105db565b820191906000526020600020905b8154815290600101906020018083116105be57829003601f168201915b5050505050905090565b6000806105f0610706565b905060006105fe828661067f565b905083811015610643576040517f08c379a000000000000000000000000000000000000000000000000000000000815260040161063a90611225565b60405180910390fd5b610650828686840361070e565b60019250505092915050565b600080610667610706565b9050610674818585610ac5565b600191505092915050565b6000600160008473ffffffffffffffffffffffffffffffffffffffff1673ffffffffffffffffffffffffffffffffffffffff16815260200190815260200160002060008373ffffffffffffffffffffffffffffffffffffffff1673ffffffffffffffffffffffffffffffffffffffff16815260200190815260200160002054905092915050565b600033905090565b600073ffffffffffffffffffffffffffffffffffffffff168373ffffffffffffffffffffffffffffffffffffffff16141561077e576040517f08c379a0000000000000000000000000000000000000000000000000000000008152600401610775906112b7565b60405180910390fd5b600073ffffffffffffffffffffffffffffffffffffffff168273ffffffffffffffffffffffffffffffffffffffff1614156107ee576040517f08c379a00000000000000000000000000000000000000000000000000000000081526004016107e590611349565b60405180910390fd5b80600160008573ffffffffffffffffffffffffffffffffffffffff1673ffffffffffffffffffffffffffffffffffffffff16815260200190815260200160002060008473ffffffffffffffffffffffffffffffffffffffff1673ffffffffffffffffffffffffffffffffffffffff168152602001908152602001600020819055508173ffffffffffffffffffffffffffffffffffffffff168373ffffffffffffffffffffffffffffffffffffffff167f8c5be1e5ebec7d5bd14f71427d1e84f3dd0314c0f7b2291e5b200ac8c7c3b925836040516108cc9190610f29565b60405180910390a3505050565b600073ffffffffffffffffffffffffffffffffffffffff168273ffffffffffffffffffffffffffffffffffffffff161415610949576040517f08c379a0000000000000000000000000000000000000000000000000000000008152600401610940906113b5565b60405180910390fd5b61095560008383610d46565b8060026000828254610967919061115d565b92505081905550806000808473ffffffffffffffffffffffffffffffffffffffff1673ffffffffffffffffffffffffffffffffffffffff16815260200190815260200160002060008282546109bc919061115d565b925050819055508173ffffffffffffffffffffffffffffffffffffffff16600073ffffffffffffffffffffffffffffffffffffffff167fddf252ad1be2c89b69c2b068fc378daa952ba7f163c4a11628f55a4df523b3ef83604051610a219190610f29565b60405180910390a3610a3560008383610d4b565b5050565b6000610a45848461067f565b90507fffffffffffffffffffffffffffffffffffffffffffffffffffffffffffffffff8114610abf5781811015610ab1576040517f08c379a0000000000000000000000000000000000000000000000000000000008152600401610aa890611421565b60405180910390fd5b610abe848484840361070e565b5b50505050565b600073ffffffffffffffffffffffffffffffffffffffff168373ffffffffffffffffffffffffffffffffffffffff161415610b35576040517f08c379a0000000000000000000000000000000000000000000000000000000008152600401610b2c906114b3565b60405180910390fd5b600073ffffffffffffffffffffffffffffffffffffffff168273ffffffffffffffffffffffffffffffffffffffff161415610ba5576040517f08c379a0000000000000000000000000000000000000000000000000000000008152600401610b9c90611545565b60405180910390fd5b610bb0838383610d46565b60008060008573ffffffffffffffffffffffffffffffffffffffff1673ffffffffffffffffffffffffffffffffffffffff16815260200190815260200160002054905081811015610c36576040517f08c379a0000000000000000000000000000000000000000000000000000000008152600401610c2d906115d7565b60405180910390fd5b8181036000808673ffffffffffffffffffffffffffffffffffffffff1673ffffffffffffffffffffffffffffffffffffffff16815260200190815260200160002081905550816000808573ffffffffffffffffffffffffffffffffffffffff1673ffffffffffffffffffffffffffffffffffffffff1681526020019081526020016000206000828254610cc9919061115d565b925050819055508273ffffffffffffffffffffffffffffffffffffffff168473ffffffffffffffffffffffffffffffffffffffff167fddf252ad1be2c89b69c2b068fc378daa952ba7f163c4a11628f55a4df523b3ef84604051610d2d9190610f29565b60405180910390a3610d40848484610d4b565b50505050565b505050565b505050565b600081519050919050565b600082825260208201905092915050565b60005b83811015610d8a578082015181840152602081019050610d6f565b83811115610d99576000848401525b50505050565b6000601f19601f8301169050919050565b6000610dbb82610d50565b610dc58185610d5b565b9350610dd5818560208601610d6c565b610dde81610d9f565b840191505092915050565b60006020820190508181036000830152610e038184610db0565b905092915050565b600080fd5b600073ffffffffffffffffffffffffffffffffffffffff82169050919050565b6000610e3b82610e10565b9050919050565b610e4b81610e30565b8114610e5657600080fd5b50565b600081359050610e6881610e42565b92915050565b6000819050919050565b610e8181610e6e565b8114610e8c57600080fd5b50565b600081359050610e9e81610e78565b92915050565b60008060408385031215610ebb57610eba610e0b565b5b6000610ec985828601610e59565b9250506020610eda85828601610e8f565b9150509250929050565b60008115159050919050565b610ef981610ee4565b82525050565b6000602082019050610f146000830184610ef0565b92915050565b610f2381610e6e565b82525050565b6000602082019050610f3e6000830184610f1a565b92915050565b600060208284031215610f5a57610f59610e0b565b5b6000610f6884828501610e59565b91505092915050565b600080600060608486031215610f8a57610f89610e0b565b5b6000610f9886828701610e59565b9350506020610fa986828701610e59565b9250506040610fba86828701610e8f565b9150509250925092565b600060ff82169050919050565b610fda81610fc4565b82525050565b6000602082019050610ff56000830184610fd1565b92915050565b6000806040838503121561101257611011610e0b565b5b600061102085828601610e59565b925050602061103185828601610e59565b9150509250929050565b7f4e487b7100000000000000000000000000000000000000000000000000000000600052602260045260246000fd5b6000600282049050600182168061108257607f821691505b602082108114156110965761109561103b565b5b50919050565b7f5468697320757365722068617320636c61696d65642061697264726f7020616c60008201527f7265616479000000000000000000000000000000000000000000000000000000602082015250565b60006110f8602583610d5b565b91506111038261109c565b604082019050919050565b60006020820190508181036000830152611127816110eb565b9050919050565b7f4e487b7100000000000000000000000000000000000000000000000000000000600052601160045260246000fd5b600061116882610e6e565b915061117383610e6e565b9250827fffffffffffffffffffffffffffffffffffffffffffffffffffffffffffffffff038211156111a8576111a761112e565b5b828201905092915050565b7f45524332303a2064656372656173656420616c6c6f77616e63652062656c6f7760008201527f207a65726f000000000000000000000000000000000000000000000000000000602082015250565b600061120f602583610d5b565b915061121a826111b3565b604082019050919050565b6000602082019050818103600083015261123e81611202565b9050919050565b7f45524332303a20617070726f76652066726f6d20746865207a65726f2061646460008201527f7265737300000000000000000000000000000000000000000000000000000000602082015250565b60006112a1602483610d5b565b91506112ac82611245565b604082019050919050565b600060208201905081810360008301526112d081611294565b9050919050565b7f45524332303a20617070726f766520746f20746865207a65726f20616464726560008201527f7373000000000000000000000000000000000000000000000000000000000000602082015250565b6000611333602283610d5b565b915061133e826112d7565b604082019050919050565b6000602082019050818103600083015261136281611326565b9050919050565b7f45524332303a206d696e7420746f20746865207a65726f206164647265737300600082015250565b600061139f601f83610d5b565b91506113aa82611369565b602082019050919050565b600060208201905081810360008301526113ce81611392565b9050919050565b7f45524332303a20696e73756666696369656e7420616c6c6f77616e6365000000600082015250565b600061140b601d83610d5b565b9150611416826113d5565b602082019050919050565b6000602082019050818103600083015261143a816113fe565b9050919050565b7f45524332303a207472616e736665722066726f6d20746865207a65726f20616460008201527f6472657373000000000000000000000000000000000000000000000000000000602082015250565b600061149d602583610d5b565b91506114a882611441565b604082019050919050565b600060208201905081810360008301526114cc81611490565b9050919050565b7f45524332303a207472616e7366657220746f20746865207a65726f206164647260008201527f6573730000000000000000000000000000000000000000000000000000000000602082015250565b600061152f602383610d5b565b915061153a826114d3565b604082019050919050565b6000602082019050818103600083015261155e81611522565b9050919050565b7f45524332303a207472616e7366657220616d6f756e742065786365656473206260008201527f616c616e63650000000000000000000000000000000000000000000000000000602082015250565b60006115c1602683610d5b565b91506115cc82611565565b604082019050919050565b600060208201905081810360008301526115f0816115b4565b905091905056fea26469706673582212206ce6a2eaa5e493a01402618f11f48303b4862790d7408b8c404ee934fdbf13d464736f6c6343000809003360806040523480156200001157600080fd5b506040518060400160405280600981526020017f5a4a5545524337323100000000000000000000000000000000000000000000008152506040518060400160405280600381526020017f49544d0000000000000000000000000000000000000000000000000000000000815250816000908051906020019062000096929190620000b8565b508060019080519060200190620000af929190620000b8565b505050620001cd565b828054620000c69062000197565b90600052602060002090601f016020900481019282620000ea576000855562000136565b82601f106200010557805160ff191683800117855562000136565b8280016001018555821562000136579182015b828111156200013557825182559160200191906001019062000118565b5b50905062000145919062000149565b5090565b5b80821115620001645760008160009055506001016200014a565b5090565b7f4e487b7100000000000000000000000000000000000000000000000000000000600052602260045260246000fd5b60006002820490506001821680620001b057607f821691505b60208210811415620001c757620001c662000168565b5b50919050565b6128a780620001dd6000396000f3fe608060405234801561001057600080fd5b50600436106100ea5760003560e01c806370a082311161008c578063b88d4fde11610066578063b88d4fde1461025b578063c87b56dd14610277578063cf378343146102a7578063e985e9c5146102d7576100ea565b806370a08231146101f157806395d89b4114610221578063a22cb4651461023f576100ea565b8063095ea7b3116100c8578063095ea7b31461016d57806323b872dd1461018957806342842e0e146101a55780636352211e146101c1576100ea565b806301ffc9a7146100ef57806306fdde031461011f578063081812fc1461013d575b600080fd5b61010960048036038101906101049190611877565b610307565b60405161011691906118bf565b60405180910390f35b6101276103e9565b6040516101349190611973565b60405180910390f35b610157600480360381019061015291906119cb565b61047b565b6040516101649190611a39565b60405180910390f35b61018760048036038101906101829190611a80565b6104c1565b005b6101a3600480360381019061019e9190611ac0565b6105d9565b005b6101bf60048036038101906101ba9190611ac0565b610639565b005b6101db60048036038101906101d691906119cb565b610659565b6040516101e89190611a39565b60405180910390f35b61020b60048036038101906102069190611b13565b61070b565b6040516102189190611b4f565b60405180910390f35b6102296107c3565b6040516102369190611973565b60405180910390f35b61025960048036038101906102549190611b96565b610855565b005b61027560048036038101906102709190611d0b565b61086b565b005b610291600480360381019061028c91906119cb565b6108cd565b60405161029e9190611973565b60405180910390f35b6102c160048036038101906102bc9190611e2f565b6109e0565b6040516102ce9190611b4f565b60405180910390f35b6102f160048036038101906102ec9190611e8b565b610a17565b6040516102fe91906118bf565b60405180910390f35b60007f80ac58cd000000000000000000000000000000000000000000000000000000007bffffffffffffffffffffffffffffffffffffffffffffffffffffffff1916827bffffffffffffffffffffffffffffffffffffffffffffffffffffffff191614806103d257507f5b5e139f000000000000000000000000000000000000000000000000000000007bffffffffffffffffffffffffffffffffffffffffffffffffffffffff1916827bffffffffffffffffffffffffffffffffffffffffffffffffffffffff1916145b806103e257506103e182610aab565b5b9050919050565b6060600080546103f890611efa565b80601f016020809104026020016040519081016040528092919081815260200182805461042490611efa565b80156104715780601f1061044657610100808354040283529160200191610471565b820191906000526020600020905b81548152906001019060200180831161045457829003601f168201915b5050505050905090565b600061048682610b15565b6004600083815260200190815260200160002060009054906101000a900473ffffffffffffffffffffffffffffffffffffffff169050919050565b60006104cc82610659565b90508073ffffffffffffffffffffffffffffffffffffffff168373ffffffffffffffffffffffffffffffffffffffff16141561053d576040517f08c379a000000000000000000000000000000000000000000000000000000000815260040161053490611f9e565b60405180910390fd5b8073ffffffffffffffffffffffffffffffffffffffff1661055c610b60565b73ffffffffffffffffffffffffffffffffffffffff16148061058b575061058a81610585610b60565b610a17565b5b6105ca576040517f08c379a00000000000000000000000000000000000000000000000000000000081526004016105c190612030565b60405180910390fd5b6105d48383610b68565b505050565b6105ea6105e4610b60565b82610c21565b610629576040517f08c379a0000000000000000000000000000000000000000000000000000000008152600401610620906120c2565b60405180910390fd5b610634838383610cb6565b505050565b6106548383836040518060200160405280600081525061086b565b505050565b6000806002600084815260200190815260200160002060009054906101000a900473ffffffffffffffffffffffffffffffffffffffff169050600073ffffffffffffffffffffffffffffffffffffffff168173ffffffffffffffffffffffffffffffffffffffff161415610702576040517f08c379a00000000000000000000000000000000000000000000000000000000081526004016106f99061212e565b60405180910390fd5b80915050919050565b60008073ffffffffffffffffffffffffffffffffffffffff168273ffffffffffffffffffffffffffffffffffffffff16141561077c576040517f08c379a0000000000000000000000000000000000000000000000000000000008152600401610773906121c0565b60405180910390fd5b600360008373ffffffffffffffffffffffffffffffffffffffff1673ffffffffffffffffffffffffffffffffffffffff168152602001908152602001600020549050919050565b6060600180546107d290611efa565b80601f01602080910402602001604051908101604052809291908181526020018280546107fe90611efa565b801561084b5780601f106108205761010080835404028352916020019161084b565b820191906000526020600020905b81548152906001019060200180831161082e57829003601f168201915b5050505050905090565b610867610860610b60565b8383610f1d565b5050565b61087c610876610b60565b83610c21565b6108bb576040517f08c379a00000000000000000000000000000000000000000000000000000000081526004016108b2906120c2565b60405180910390fd5b6108c78484848461108a565b50505050565b60606108d882610b15565b60006006600084815260200190815260200160002080546108f890611efa565b80601f016020809104026020016040519081016040528092919081815260200182805461092490611efa565b80156109715780601f1061094657610100808354040283529160200191610971565b820191906000526020600020905b81548152906001019060200180831161095457829003601f168201915b5050505050905060006109826110e6565b90506000815114156109985781925050506109db565b6000825111156109cd5780826040516020016109b592919061221c565b604051602081830303815290604052925050506109db565b6109d6846110fd565b925050505b919050565b6000806109ed6007611165565b90506109f98482611173565b610a03818461134d565b610a0d60076113c1565b8091505092915050565b6000600560008473ffffffffffffffffffffffffffffffffffffffff1673ffffffffffffffffffffffffffffffffffffffff16815260200190815260200160002060008373ffffffffffffffffffffffffffffffffffffffff1673ffffffffffffffffffffffffffffffffffffffff16815260200190815260200160002060009054906101000a900460ff16905092915050565b60007f01ffc9a7000000000000000000000000000000000000000000000000000000007bffffffffffffffffffffffffffffffffffffffffffffffffffffffff1916827bffffffffffffffffffffffffffffffffffffffffffffffffffffffff1916149050919050565b610b1e816113d7565b610b5d576040517f08c379a0000000000000000000000000000000000000000000000000000000008152600401610b549061212e565b60405180910390fd5b50565b600033905090565b816004600083815260200190815260200160002060006101000a81548173ffffffffffffffffffffffffffffffffffffffff021916908373ffffffffffffffffffffffffffffffffffffffff160217905550808273ffffffffffffffffffffffffffffffffffffffff16610bdb83610659565b73ffffffffffffffffffffffffffffffffffffffff167f8c5be1e5ebec7d5bd14f71427d1e84f3dd0314c0f7b2291e5b200ac8c7c3b92560405160405180910390a45050565b600080610c2d83610659565b90508073ffffffffffffffffffffffffffffffffffffffff168473ffffffffffffffffffffffffffffffffffffffff161480610c6f5750610c6e8185610a17565b5b80610cad57508373ffffffffffffffffffffffffffffffffffffffff16610c958461047b565b73ffffffffffffffffffffffffffffffffffffffff16145b91505092915050565b8273ffffffffffffffffffffffffffffffffffffffff16610cd682610659565b73ffffffffffffffffffffffffffffffffffffffff1614610d2c576040517f08c379a0000000000000000000000000000000000000000000000000000000008152600401610d23906122b2565b60405180910390fd5b600073ffffffffffffffffffffffffffffffffffffffff168273ffffffffffffffffffffffffffffffffffffffff161415610d9c576040517f08c379a0000000000000000000000000000000000000000000000000000000008152600401610d9390612344565b60405180910390fd5b610da7838383611443565b610db2600082610b68565b6001600360008573ffffffffffffffffffffffffffffffffffffffff1673ffffffffffffffffffffffffffffffffffffffff1681526020019081526020016000206000828254610e029190612393565b925050819055506001600360008473ffffffffffffffffffffffffffffffffffffffff1673ffffffffffffffffffffffffffffffffffffffff1681526020019081526020016000206000828254610e5991906123c7565b92505081905550816002600083815260200190815260200160002060006101000a81548173ffffffffffffffffffffffffffffffffffffffff021916908373ffffffffffffffffffffffffffffffffffffffff160217905550808273ffffffffffffffffffffffffffffffffffffffff168473ffffffffffffffffffffffffffffffffffffffff167fddf252ad1be2c89b69c2b068fc378daa952ba7f163c4a11628f55a4df523b3ef60405160405180910390a4610f18838383611448565b505050565b8173ffffffffffffffffffffffffffffffffffffffff168373ffffffffffffffffffffffffffffffffffffffff161415610f8c576040517f08c379a0000000000000000000000000000000000000000000000000000000008152600401610f8390612469565b60405180910390fd5b80600560008573ffffffffffffffffffffffffffffffffffffffff1673ffffffffffffffffffffffffffffffffffffffff16815260200190815260200160002060008473ffffffffffffffffffffffffffffffffffffffff1673ffffffffffffffffffffffffffffffffffffffff16815260200190815260200160002060006101000a81548160ff0219169083151502179055508173ffffffffffffffffffffffffffffffffffffffff168373ffffffffffffffffffffffffffffffffffffffff167f17307eab39ab6107e8899845ad3d59bd9653f200f220920489ca2b5937696c318360405161107d91906118bf565b60405180910390a3505050565b611095848484610cb6565b6110a18484848461144d565b6110e0576040517f08c379a00000000000000000000000000000000000000000000000000000000081526004016110d7906124fb565b60405180910390fd5b50505050565b606060405180602001604052806000815250905090565b606061110882610b15565b60006111126110e6565b90506000815111611132576040518060200160405280600081525061115d565b8061113c846115e4565b60405160200161114d92919061221c565b6040516020818303038152906040525b915050919050565b600081600001549050919050565b600073ffffffffffffffffffffffffffffffffffffffff168273ffffffffffffffffffffffffffffffffffffffff1614156111e3576040517f08c379a00000000000000000000000000000000000000000000000000000000081526004016111da90612567565b60405180910390fd5b6111ec816113d7565b1561122c576040517f08c379a0000000000000000000000000000000000000000000000000000000008152600401611223906125d3565b60405180910390fd5b61123860008383611443565b6001600360008473ffffffffffffffffffffffffffffffffffffffff1673ffffffffffffffffffffffffffffffffffffffff168152602001908152602001600020600082825461128891906123c7565b92505081905550816002600083815260200190815260200160002060006101000a81548173ffffffffffffffffffffffffffffffffffffffff021916908373ffffffffffffffffffffffffffffffffffffffff160217905550808273ffffffffffffffffffffffffffffffffffffffff16600073ffffffffffffffffffffffffffffffffffffffff167fddf252ad1be2c89b69c2b068fc378daa952ba7f163c4a11628f55a4df523b3ef60405160405180910390a461134960008383611448565b5050565b611356826113d7565b611395576040517f08c379a000000000000000000000000000000000000000000000000000000000815260040161138c90612665565b60405180910390fd5b806006600084815260200190815260200160002090805190602001906113bc929190611768565b505050565b6001816000016000828254019250508190555050565b60008073ffffffffffffffffffffffffffffffffffffffff166002600084815260200190815260200160002060009054906101000a900473ffffffffffffffffffffffffffffffffffffffff1673ffffffffffffffffffffffffffffffffffffffff1614159050919050565b505050565b505050565b600061146e8473ffffffffffffffffffffffffffffffffffffffff16611745565b156115d7578373ffffffffffffffffffffffffffffffffffffffff1663150b7a02611497610b60565b8786866040518563ffffffff1660e01b81526004016114b994939291906126da565b602060405180830381600087803b1580156114d357600080fd5b505af192505050801561150457506040513d601f19601f82011682018060405250810190611501919061273b565b60015b611587573d8060008114611534576040519150601f19603f3d011682016040523d82523d6000602084013e611539565b606091505b5060008151141561157f576040517f08c379a0000000000000000000000000000000000000000000000000000000008152600401611576906124fb565b60405180910390fd5b805181602001fd5b63150b7a0260e01b7bffffffffffffffffffffffffffffffffffffffffffffffffffffffff1916817bffffffffffffffffffffffffffffffffffffffffffffffffffffffff1916149150506115dc565b600190505b949350505050565b6060600082141561162c576040518060400160405280600181526020017f30000000000000000000000000000000000000000000000000000000000000008152509050611740565b600082905060005b6000821461165e57808061164790612768565b915050600a8261165791906127e0565b9150611634565b60008167ffffffffffffffff81111561167a57611679611be0565b5b6040519080825280601f01601f1916602001820160405280156116ac5781602001600182028036833780820191505090505b5090505b60008514611739576001826116c59190612393565b9150600a856116d49190612811565b60306116e091906123c7565b60f81b8183815181106116f6576116f5612842565b5b60200101907effffffffffffffffffffffffffffffffffffffffffffffffffffffffffffff1916908160001a905350600a8561173291906127e0565b94506116b0565b8093505050505b919050565b6000808273ffffffffffffffffffffffffffffffffffffffff163b119050919050565b82805461177490611efa565b90600052602060002090601f01602090048101928261179657600085556117dd565b82601f106117af57805160ff19168380011785556117dd565b828001600101855582156117dd579182015b828111156117dc5782518255916020019190600101906117c1565b5b5090506117ea91906117ee565b5090565b5b808211156118075760008160009055506001016117ef565b5090565b6000604051905090565b600080fd5b600080fd5b60007fffffffff0000000000000000000000000000000000000000000000000000000082169050919050565b6118548161181f565b811461185f57600080fd5b50565b6000813590506118718161184b565b92915050565b60006020828403121561188d5761188c611815565b5b600061189b84828501611862565b91505092915050565b60008115159050919050565b6118b9816118a4565b82525050565b60006020820190506118d460008301846118b0565b92915050565b600081519050919050565b600082825260208201905092915050565b60005b838110156119145780820151818401526020810190506118f9565b83811115611923576000848401525b50505050565b6000601f19601f8301169050919050565b6000611945826118da565b61194f81856118e5565b935061195f8185602086016118f6565b61196881611929565b840191505092915050565b6000602082019050818103600083015261198d818461193a565b905092915050565b6000819050919050565b6119a881611995565b81146119b357600080fd5b50565b6000813590506119c58161199f565b92915050565b6000602082840312156119e1576119e0611815565b5b60006119ef848285016119b6565b91505092915050565b600073ffffffffffffffffffffffffffffffffffffffff82169050919050565b6000611a23826119f8565b9050919050565b611a3381611a18565b82525050565b6000602082019050611a4e6000830184611a2a565b92915050565b611a5d81611a18565b8114611a6857600080fd5b50565b600081359050611a7a81611a54565b92915050565b60008060408385031215611a9757611a96611815565b5b6000611aa585828601611a6b565b9250506020611ab6858286016119b6565b9150509250929050565b600080600060608486031215611ad957611ad8611815565b5b6000611ae786828701611a6b565b9350506020611af886828701611a6b565b9250506040611b09868287016119b6565b9150509250925092565b600060208284031215611b2957611b28611815565b5b6000611b3784828501611a6b565b91505092915050565b611b4981611995565b82525050565b6000602082019050611b646000830184611b40565b92915050565b611b73816118a4565b8114611b7e57600080fd5b50565b600081359050611b9081611b6a565b92915050565b60008060408385031215611bad57611bac611815565b5b6000611bbb85828601611a6b565b9250506020611bcc85828601611b81565b9150509250929050565b600080fd5b600080fd5b7f4e487b7100000000000000000000000000000000000000000000000000000000600052604160045260246000fd5b611c1882611929565b810181811067ffffffffffffffff82111715611c3757611c36611be0565b5b80604052505050565b6000611c4a61180b565b9050611c568282611c0f565b919050565b600067ffffffffffffffff821115611c7657611c75611be0565b5b611c7f82611929565b9050602081019050919050565b82818337600083830152505050565b6000611cae611ca984611c5b565b611c40565b905082815260208101848484011115611cca57611cc9611bdb565b5b611cd5848285611c8c565b509392505050565b600082601f830112611cf257611cf1611bd6565b5b8135611d02848260208601611c9b565b91505092915050565b60008060008060808587031215611d2557611d24611815565b5b6000611d3387828801611a6b565b9450506020611d4487828801611a6b565b9350506040611d55878288016119b6565b925050606085013567ffffffffffffffff811115611d7657611d7561181a565b5b611d8287828801611cdd565b91505092959194509250565b600067ffffffffffffffff821115611da957611da8611be0565b5b611db282611929565b9050602081019050919050565b6000611dd2611dcd84611d8e565b611c40565b905082815260208101848484011115611dee57611ded611bdb565b5b611df9848285611c8c565b509392505050565b600082601f830112611e1657611e15611bd6565b5b8135611e26848260208601611dbf565b91505092915050565b60008060408385031215611e4657611e45611815565b5b6000611e5485828601611a6b565b925050602083013567ffffffffffffffff811115611e7557611e7461181a565b5b611e8185828601611e01565b9150509250929050565b60008060408385031215611ea257611ea1611815565b5b6000611eb085828601611a6b565b9250506020611ec185828601611a6b565b9150509250929050565b7f4e487b7100000000000000000000000000000000000000000000000000000000600052602260045260246000fd5b60006002820490506001821680611f1257607f821691505b60208210811415611f2657611f25611ecb565b5b50919050565b7f4552433732313a20617070726f76616c20746f2063757272656e74206f776e6560008201527f7200000000000000000000000000000000000000000000000000000000000000602082015250565b6000611f886021836118e5565b9150611f9382611f2c565b604082019050919050565b60006020820190508181036000830152611fb781611f7b565b9050919050565b7f4552433732313a20617070726f76652063616c6c6572206973206e6f7420746f60008201527f6b656e206f776e6572206e6f7220617070726f76656420666f7220616c6c0000602082015250565b600061201a603e836118e5565b915061202582611fbe565b604082019050919050565b600060208201905081810360008301526120498161200d565b9050919050565b7f4552433732313a2063616c6c6572206973206e6f7420746f6b656e206f776e6560008201527f72206e6f7220617070726f766564000000000000000000000000000000000000602082015250565b60006120ac602e836118e5565b91506120b782612050565b604082019050919050565b600060208201905081810360008301526120db8161209f565b9050919050565b7f4552433732313a20696e76616c696420746f6b656e2049440000000000000000600082015250565b60006121186018836118e5565b9150612123826120e2565b602082019050919050565b600060208201905081810360008301526121478161210b565b9050919050565b7f4552433732313a2061646472657373207a65726f206973206e6f74206120766160008201527f6c6964206f776e65720000000000000000000000000000000000000000000000602082015250565b60006121aa6029836118e5565b91506121b58261214e565b604082019050919050565b600060208201905081810360008301526121d98161219d565b9050919050565b600081905092915050565b60006121f6826118da565b61220081856121e0565b93506122108185602086016118f6565b80840191505092915050565b600061222882856121eb565b915061223482846121eb565b91508190509392505050565b7f4552433732313a207472616e736665722066726f6d20696e636f72726563742060008201527f6f776e6572000000000000000000000000000000000000000000000000000000602082015250565b600061229c6025836118e5565b91506122a782612240565b604082019050919050565b600060208201905081810360008301526122cb8161228f565b9050919050565b7f4552433732313a207472616e7366657220746f20746865207a65726f2061646460008201527f7265737300000000000000000000000000000000000000000000000000000000602082015250565b600061232e6024836118e5565b9150612339826122d2565b604082019050919050565b6000602082019050818103600083015261235d81612321565b9050919050565b7f4e487b7100000000000000000000000000000000000000000000000000000000600052601160045260246000fd5b600061239e82611995565b91506123a983611995565b9250828210156123bc576123bb612364565b5b828203905092915050565b60006123d282611995565b91506123dd83611995565b9250827fffffffffffffffffffffffffffffffffffffffffffffffffffffffffffffffff0382111561241257612411612364565b5b828201905092915050565b7f4552433732313a20617070726f766520746f2063616c6c657200000000000000600082015250565b60006124536019836118e5565b915061245e8261241d565b602082019050919050565b6000602082019050818103600083015261248281612446565b9050919050565b7f4552433732313a207472616e7366657220746f206e6f6e20455243373231526560008201527f63656976657220696d706c656d656e7465720000000000000000000000000000602082015250565b60006124e56032836118e5565b91506124f082612489565b604082019050919050565b60006020820190508181036000830152612514816124d8565b9050919050565b7f4552433732313a206d696e7420746f20746865207a65726f2061646472657373600082015250565b60006125516020836118e5565b915061255c8261251b565b602082019050919050565b6000602082019050818103600083015261258081612544565b9050919050565b7f4552433732313a20746f6b656e20616c7265616479206d696e74656400000000600082015250565b60006125bd601c836118e5565b91506125c882612587565b602082019050919050565b600060208201905081810360008301526125ec816125b0565b9050919050565b7f45524337323155524953746f726167653a2055524920736574206f66206e6f6e60008201527f6578697374656e7420746f6b656e000000000000000000000000000000000000602082015250565b600061264f602e836118e5565b915061265a826125f3565b604082019050919050565b6000602082019050818103600083015261267e81612642565b9050919050565b600081519050919050565b600082825260208201905092915050565b60006126ac82612685565b6126b68185612690565b93506126c68185602086016118f6565b6126cf81611929565b840191505092915050565b60006080820190506126ef6000830187611a2a565b6126fc6020830186611a2a565b6127096040830185611b40565b818103606083015261271b81846126a1565b905095945050505050565b6000815190506127358161184b565b92915050565b60006020828403121561275157612750611815565b5b600061275f84828501612726565b91505092915050565b600061277382611995565b91507fffffffffffffffffffffffffffffffffffffffffffffffffffffffffffffffff8214156127a6576127a5612364565b5b600182019050919050565b7f4e487b7100000000000000000000000000000000000000000000000000000000600052601260045260246000fd5b60006127eb82611995565b91506127f683611995565b925082612806576128056127b1565b5b828204905092915050565b600061281c82611995565b915061282783611995565b925082612837576128366127b1565b5b828206905092915050565b7f4e487b7100000000000000000000000000000000000000000000000000000000600052603260045260246000fdfea26469706673582212207ca65a3c7e4c29cce0f8387017408dbde508501ca1ad807aa856510875e4dd5c64736f6c63430008090033",
  "linkReferences": {},
  "deployedLinkReferences": {}
}